:100000000C9434000C9446000C9446000C94590057
:100010000C9446000C9446000C9446000C94460048
:100020000C9446000C9446000C9446000C94460038
:100030000C9446000C9446000C9448000C94460026
:100040000C9446000C9446000C9446000C94460018
:100050000C9446000C9446000C9446000C94460008
:100060000C9446000C94460011241FBECFEFD8E03C
:10007000DEBFCDBF11E0A0E0B1E001C01D92A53010
:10008000B107E1F70E94C0020C94DE030C9400005B
:100090001F920F920FB60F9211248F93809102013D
:1000A0008F5F809302018F910F900FBE0F901F9072
:1000B00018951F920F920FB60F9211248F93809173
:1000C00003018F5F8093030180910301863939F426
:1000D000809101018F5F80930101109203018F9144
:1000E0000F900FBE0F901F9018958EE084B984B1C9
:1000F0008E7C84B987B1807C87B98AB18B7E8AB9BE
:1001000089E68AB980E385B98EE388B984E08BB942
:10011000EEE6F0E08081887F808384B58C7084BDBA
:1001200085B5807385BD85B5866085BD8BE487BD4B
:1001300080818260808310920201E8E6F0E0808195
:1001400081608083EBE6F0E08081816080831092A3
:10015000030110920101EAE7F0E08081806880836A
:1001600010927C0078940C945B025D985B9A0895E1
:100170002B985E9A089529982A9A08958823A9F0C1
:1001800090E058982FE53AEE40E021503040404052
:10019000E1F700C00000589AEFE4F3EC3197F1F773
:1001A00000C000009F5F9813ECCF0895589A8BB160
:1001B000877D8BB95E982B9885B1897F85B9089525
:1001C00002C00E94BB003499FCCF85B1897F85B9FC
:1001D00008951C9B02C0329904C01C9908C082E09B
:1001E0000895319BFACF1D9BF8CF81E00895329995
:1001F00002C083E00895319902C084E008951D99FA
:10020000F4CF85E00895882319F05B985D9A0895EE
:100210000C94B500CF93DF93D82FC62F1092020114
:100220008D2F0E940301909102019C17C8F38BB19E
:10023000877D8BB9DF91CF910895CF93C82F80919F
:1002400000018C1790F080910001C81720F0C09336
:100250000001CF910895609100016C1B81E00E9424
:100260000A01C0930001CF910895809100016C2F85
:10027000681B80E00E940A01C0930001CF9108959D
:10028000882319F05E982B9A08950C94B800DF9299
:10029000EF92FF920F931F93CF93DF931F92CDB7EF
:1002A000DEB7182F062F80910401811709F4B6C01C
:1002B00010920201109201011092030183E0F82EC6
:1002C00093E0D12CE12C80910001811708F483C0C8
:1002D00080910001181708F067C035998CC0109202
:1002E0000001109202018BB1877D8BB993E0E12C64
:1002F00080910401801708F464C0809104010817FC
:1003000008F04AC04A997FC010920401109201017E
:10031000109203015E982B9893E0D12CEE2019F0F7
:1003200080910201E81ADD2019F080910101D81AAC
:1003300091111FC02091000180910201820F8093D2
:100340000001FF2009F1E110BECFD110BCCF109306
:100350000001009304018BB1877D8BB95E982B98C7
:100360000F90DF91CF911F910F91FF90EF90DF9051
:100370000895913031F78091000120910201821B94
:1003800080930001F1102FC02091040180910101A0
:10039000820F80930401D7CF809104018013BECFD8
:1003A0005E982B98D12CBACF809100018113A0CFF9
:1003B0008BB1877D8BB9E12C80910401801708F007
:1003C0009CCF80910401D02ED81A99830E94B80046
:1003D000F12C9981A3CF80910001E12EE81A0E94AF
:1003E000B50090E085CF8091040120910101821B2E
:1003F00080930401A8CFE0900001E11A81E00E94FF
:10040000030191E075CFD0900401D01A81E0998367
:100410000E944001FF24F394998180CF80910401D0
:10042000861346CF9DCFCF93DF93D82FC62F109240
:100430000101109203018D2F0E9440019091010152
:100440009C17C8F35E982B98DF91CF910895CF93B6
:10045000C82F809104018C1790F080910401C81777
:1004600020F0C0930401CF910895609104016C1BAA
:1004700081E00E941302C0930401CF9108958091FE
:1004800004016C2F681B80E00E941302C0930401DA
:10049000CF910895882319F02A98299A08950C94E9
:1004A000BB0003C081E00E944A023399FBCF85B1B3
:1004B000897F85B90895CF930E94E00086B191E0CD
:1004C00085FB882780F98927C9B1C2FBCC27C0F9F1
:1004D000C927882311F0C1111FC08823A1F08BB157
:1004E000877D8BB9CC23A1F05E982B9886B191E0E3
:1004F00085FB882780F98927C9B1C2FBCC27C0F9C1
:10050000C9278111E8CF81E00E940301C111ECCF1E
:1005100081E00E944001EACF0E94D6000E94510271
:100520001092000110920201109204011092010138
:1005300010920301CF9108958BB1877D8BB90895F7
:100540005E982B98089585B1897F85B9089558984C
:100550000895589A08958BB191E089278BB9089531
:1005600080917A00806480937A0080917A0086FD81
:10057000FCCF809178002091790090E0922B089533
:100580000E9475000E94E0002FE38DE093E021506F
:1005900080409040E1F700C0000061E085E00E94EB
:1005A00047012FEB87E299E0215080409040E1F72E
:1005B00000C0000062E085E00E9447012FEB87E267
:1005C00099E0215080409040E1F700C0000063E0D6
:1005D00085E00E9447012FEB87E299E0215080409F
:1005E0009040E1F700C0000064E085E00E94470110
:1005F0002FEB87E299E0215080409040E1F700C066
:10060000000065E085E00E9447012FEB87E299E05A
:10061000215080409040E1F700C000000E94E900B6
:10062000833031F1843008F04FC0813009F454C078
:10063000823009F051C080E00E9403010E94B002A4
:10064000BC0180E090E00E9479036B017C0120E016
:1006500030E04CE453E40E94750387FF0DC0349BE7
:1006600030C080E00E944A020E94E9008330D1F647
:1006700081E00E940301E2CF20E030E04CE453E44B
:10068000C701B6010E94DA03181654F420E030E0E6
:100690004CE454E4C701B6010E94750318168CF4AB
:1006A00020E030E04CE454E4C701B6010E94DA03D4
:1006B00018160CF0B3CF339B04C081E00E944A02AD
:1006C000ADCF0E94A302AACF843059F0853021F427
:1006D00081E00E944001B2CF0E949C020E94A002D1
:1006E000ADCF80E00E944001A9CF40D008F481E066
:1006F0000895E89409C097FB3EF490958095709515
:1007000061957F4F8F4F9F4F9923A9F0F92F96E95D
:10071000BB279395F695879577956795B795F111D2
:10072000F8CFFAF4BB0F11F460FF1BC06F5F7F4F6F
:100730008F4F9F4F16C0882311F096E911C0772381
:1007400021F09EE8872F762F05C0662371F096E88A
:10075000862F70E060E02AF09A95660F771F881F59
:10076000DAF7880F9695879597F90895990F0008FD
:10077000550FAA0BE0E8FEEF16161706E807F90773
:10078000C0F012161306E407F50798F0621B730B0E
:10079000840B950B39F40A2661F0232B242B252B8F
:1007A00021F408950A2609F4A140A6958FEF811D32
:1007B000811D0895DBDF08F48FEF0895F894FFCFD3
:00000001FF
